:020000040800F2
:100000007887002045010008DD010008DF010008B5
:10001000E9010008ED010008F101000800000000FE
:10002000000000000000000000000000F5010008D2
:10003000F701000800000000F9010008FB010008BA
:100040005F0100085F0100085F0100085F01000810
:100050005F0100085F0100085F0100085F01000800
:100060005F0100085F0100085F0100085F010008F0
:100070005F0100085F0100085F0100085F010008E0
:100080005F0100085F0100085F0100085F010008D0
:100090005F0100085F0100085F0100085F010008C0
:1000A0005F0100085F0100085F0100085F010008B0
:1000B0005F0100085F0100085F0100085F010008A0
:1000C0005F0100085F0100085F0100085F01000890
:1000D0005F0100085F0100085F0100085F01000880
:1000E0005F0100085F0100085F0100085F01000870
:1000F0005F0100085F0100085F0100085F01000860
:100100005F0100085F0100085F0100085F0100084F
:100110005F0100085F0100085F0100085F0100083F
:100120005F0100085F0100085F0100085F0100082F
:10013000DFF80CD00AF052FA0048004769010008C5
:10014000788700200648804706480047FEE7FEE71C
:10015000FEE7FEE7FEE7FEE7FEE7FEE7FEE7FEE777
:10016000B11200083101000800F0D2F801F024FBC0
:1001700000F07EF800F056F807A00AF0D1FA01F07E
:1001800063FE01F00EFE01F0ADFC03E012480068D2
:1001900001F086FEFAE700000D0A2A2A2A2A2A2AF6
:1001A0002A2A2A2A2A2A2A2AD2B0BBF053544D33AB
:1001B000325F656E63386A36302B6C776970D2C6F1
:1001C000D6B2CAB5D1E92A2A2A2A2A2A2A2A2A2ACA
:1001D0002A2A2A0D0A00000000000020704709A00A
:1001E0000AF09EFA00BFFEE700BFFEE700BFFEE791
:1001F00000BFFEE770477047704710B501F04AFE38
:1002000010BD000020766F69642048617264466109
:10021000756C745F48616E646C657228766F696492
:100220002920000008B50121182000F0E1FB012081
:10023000ADF8000010208DF8030003208DF80200B7
:100240006946094800F01EF91820ADF8000069461B
:10025000064800F017F90121034800F0BEF9182103
:10026000024800F0BAF908BD000C0140001001403E
:1002700030B5234800686422B0FBF2F1B1F1807F11
:1002800001D301201DE021F07F40401E4FF0E0220D
:10029000506150170F22002807DA13071D0E194B63
:1002A00000F00F04241F1D5503E013071C0E164B0E
:1002B0001C5400BF00204FF0E02290610720106125
:1002C000002008B100BFFEE730BD01B50F4900981E
:1002D00008604FF0E020006940F001004FF0E0219D
:1002E000086100BF094800680028FBD108BD074825
:1002F000006820B105480068401E04490860704746
:100300001C00002018ED00E000E400E004000020E4
:1003100000B585B0012144F2040000F069FB4FF400
:100320000070ADF8100018208DF8130003208DF830
:10033000120004A9214800F0A5F84FF48060ADF840
:10034000100004208DF8130004A91C4800F09AF84E
:100350004FF4E13000900020ADF80400ADF8060045
:10036000ADF80800ADF80C000C20ADF80A006946A5
:10037000134800F06EFD0121114800F0F6FD05B0B4
:1003800000BD70B504460D46E1B20D4800F05AFEBE
:1003900000BF40210A4800F0C3FE0028F9D02046E3
:1003A00070BD10B5044600BF2021054800F0B8FE1E
:1003B0000028F9D0024800F049FE10BD00080140B5
:1003C0000038014010B50446CA48844208D10121D2
:1003D000042000F027FB0021042000F023FB46E06E
:1003E000C548844208D10121082000F01BFB0021F0
:1003F000082000F017FB3AE0C048844208D10121F0
:10040000102000F00FFB0021102000F00BFB2EE06D
:10041000BB48844208D10121202000F003FB0021C9
:10042000202000F0FFFA22E0B648844208D10121E2
:10043000402000F0F7FA0021402000F0F3FA16E027
:10044000B148844208D10121802000F0EBFA00215C
:10045000802000F0E7FA0AE0AC48844207D101218D
:10046000801500F0DFFA0021A01500F0DBFA10BDC6
:1004700010B50121084600F0D5FA0021012000F056
:10048000D1FA10BD2DE9F0410246002500260020DA
:1004900000230024002791F803C00CF00F0591F809
:1004A00003C01CF0100F03D091F802C04CEA050500
:1004B00091F800C0BCF1000F31D0146800202BE08F
:1004C0004FF0010C0CFA00F3B1F800C00CEA03067F
:1004D0009E4220D183004FF00F0C0CFA03F7BC436F
:1004E00005FA03FC4CEA040491F803C0BCF1280FA0
:1004F00006D14FF0010C0CFA00FCC2F814C00AE05F
:1005000091F803C0BCF1480F05D14FF0010C0CFA73
:1005100000FCC2F810C0401C0828D1D31460B1F808
:1005200000C0BCF1FF0F34DD546800202EE000F164
:10053000080C4FF0010808FA0CF3B1F800C00CEAFF
:1005400003069E4221D183004FF00F0C0CFA03F7F3
:10055000BC4305FA03FC4CEA040491F803C0BCF167
:10056000280F05D100F1080C08FA0CF8C2F8148025
:1005700091F803C0BCF1480F07D100F1080C4FF00F
:10058000010808FA0CF8C2F81080401C0828CED3E5
:100590005460BDE8F0814FF6FF7101800221817047
:1005A0000421C17070470246002093680B4201D0BD
:1005B000012000E0002070470146886880B2704743
:1005C00002460020D3680B4201D0012000E0002049
:1005D00070470146C86880B2704701617047416149
:1005E00070470AB1016100E041617047C160704726
:1005F0004FF480320A43826181618261826982693B
:10060000704702460020424B18684FF6807318402E
:1006100040EA021008433E4B186070473D49C861EC
:100620007047F0B50A46002300240021002500F0A1
:100630000046B6F1004F02D1354EF16901E0344E6B
:100640007168C0F3034583B200F44016B6F5401F4D
:1006500008D121F070612E4E766826F070662C4F1E
:100660007E6012E000F48016B6F5801F06D10326E6
:1006700006FA05F4A14341F0706106E0460D36012B
:1006800003FA06F6B14341F0706122B1460D36011E
:1006900003FA06F6314300F00046B6F1004F02D1EE
:1006A0001B4EF16101E01A4E7160F0BD30B50022C1
:1006B0008B071C0F0F2303FA04F2154B08338C1021
:1006C00053F824309343124C08348D1044F82530ED
:1006D00023468C1053F824308C07240F00FA04F4BE
:1006E00023430B4C08348D1044F8253030BD0A49A3
:1006F0000860704700080140000C014000100140F4
:100700000014014000180140001C0140002001407D
:100710000000014000002042DC002042DD4800686B
:1007200040F00100DB49086008464068DA490840AB
:10073000D849486008460068D8490840D54908604B
:100740000846006820F4802008600846406820F4CD
:10075000FE0048604FF41F0088607047CD4909686B
:1007600021F48031CB4A11601146096821F48021BF
:100770001160B0F5803F03D0B0F5802F0ED106E0B8
:10078000C449096841F48031C24A116007E0C14997
:10079000096841F4A021BF4A116000E000BF00BF1A
:1007A000704710B501460022002300204A11012A9B
:1007B00002D1B84C236806E0022A02D1B54C236A64
:1007C00001E0B44C636A01F01F02012494401C4212
:1007D00001D0012000E0002010BD38B500200090BD
:1007E0000024002500BF3120FFF7DBFF05460098FD
:1007F000401C00900098B0F5A06F01D0002DF2D001
:100800003120FFF7CEFF08B1012400E0002420468C
:1008100038BD014600209F4A106820F0F80040EAE9
:10082000C100106070479E49086070470246002072
:10083000984B586820F47C1042EA01031843954B0A
:100840005860704796490866704701460020914AF3
:10085000506820F003000843506070478D4840689E
:1008600000F00C007047014600208A4A506820F0D2
:10087000F00008435060704701460020854A5068E8
:1008800020F4E06008435060704701460020814A30
:10089000506820F4605040EAC1005060704729B1B0
:1008A0007C4A527A02437B4B5A7204E0794A527A6C
:1008B0008243784B5A7270477A4908607047014604
:1008C0000020744A506820F440400843506070474C
:1008D0000021754A11706F4A82F82010012802D059
:1008E000042808D103E001216F4A117004E00521BA
:1008F0006D4A117000E000BF00BF70476B4908608F
:1009000070476449096A0143624A11627047674946
:1009100044390860704730B50021002200240023CC
:100920005C4D6D6805F00C0121B1042905D0082942
:1009300023D105E05E4D056022E05D4D05601FE0BE
:10094000544D6D6805F47012524D6D6805F4803495
:10095000022505EB92421CB9564D554305600BE04C
:100960004C4D6D6815F4003F03D0524D5543056062
:1009700002E04F4D5543056002E04D4D056000BF5C
:1009800000BF444D6D6805F0F00109094A4D6B5CEC
:100990000568DD4045603F4D6D6805F4E061090A7A
:1009A000454D6B5C4568DD4085603A4D6D6805F4EA
:1009B0006051C90A404D6B5C4568DD40C560354DEE
:1009C0006D6805F44041890B3C4D6B5CC568B5FB17
:1009D000F3F5056130BD29B12E4A526902432D4B12
:1009E0005A6104E02B4A526982432A4B5A6170478C
:1009F00029B1284A92690243264B9A6104E0254AAC
:100A000092698243234B9A61704729B1214AD26986
:100A10000243204BDA6104E01E4AD26982431D4B37
:100A2000DA61704729B11B4AD2680243194BDA6078
:100A300004E0184AD2688243164BDA60704729B145
:100A4000144A12690243134B1A6104E0114A1269F5
:100A50008243104B1A61704714494039086070474F
:100A60000F49C86470470B49C87170470948406A0C
:100A700040F0807007494862704701460020054AEF
:100A800092680A4201D0012000E00020704701492D
:100A900088727047001002400000FFF8FFFFF6FE6A
:100AA00000004242D80042422010024080044242EC
:100AB00000127A0000093D00080000201800002004
:100AC00010B50446BE48844208D101218014FFF7C6
:100AD000A9FF0021A014FFF7A5FF16E0B948844242
:100AE00008D101210014FFF7AAFF00212014FFF70D
:100AF000A6FF0AE0B448844207D10121C013FFF7E2
:100B00009EFF0021E013FFF79AFF10BD10B50022F1
:100B1000028802F441520B884C8823438C8823437B
:100B2000CC8823430C8923434C8923438C8923435A
:100B3000CC8923431A430280838B4FF2FF742340F6
:100B400083830B8A038210BD2DE9F04F85B00546E3
:100B50000C464FF0000902274FF000084FF0010B40
:100B60000026B246A88B4FF240010840A88302201D
:100B70002884B5F81C90A068022801D100BF38E095
:100B8000A08810B94FF0010B01E04FF0020B8D4827
:100B9000854200D100E000BF6846FFF7BCFEDDF8EB
:100BA00000A0E088B0F5007F0AD14FEA1A2000EBE0
:100BB00080004000A168B0FBF1F0401D86B20BE060
:100BC0004FEA4B10BAFBF0F000EB80004000A16848
:100BD000B0FBF1F0401D86B20A20B6FBF0F606F03D
:100BE0000108A6EB0800C0F34F074FF6FF7000EABC
:100BF0000828022F01DBFF2F02DD02274FF000083B
:100C0000E08840EA080038432884A088A189084386
:100C1000618808432188084340F4006040EA0909DC
:100C2000A5F81C9005B0BDE8F08F0021018041803F
:100C30008180C180018141818181C181072101823F
:100C400070470021018041808180C1800221816044
:100C500000218181704721B1028842F04002028068
:100C600004E002884FF6BF731A400280704721B13A
:100C7000828B42F48062828304E0828B4FF6FF33E2
:100C80001A408283704730B5002400230C110125DF
:100C9000A540ABB21AB185881D43858002E08588E6
:100CA0009D43858030BD1AB183880B43838002E069
:100CB00083888B4383807047818170470146888990
:100CC0007047A1F57E42FF3A04D0028842F4807258
:100CD000028004E002884FF6FF631A4002807047EA
:100CE00021B1828842F00402828004E082884FF6BB
:100CF000FB731A408280704702884FF2FF731A40DC
:100D0000028002880A4302807047018841F48051C2
:100D10000180704721B1028842F40052028004E051
:100D200002884DF6FF731A40028070470246002089
:100D3000012901D0108B00E0908A70470146088A93
:100D40007047B1F5804F04D1028842F4804202809E
:100D500004E002884BF6FF731A4002807047024697
:100D6000002013890B4201D0012000E000207047D1
:100D7000CA4302817047F0B50246002000240023D8
:100D8000002501F00F070126BE40B4B20B11012669
:100D90009E40B3B2968806EA03051689264202D021
:100DA0000DB1012000E00020F0BD10B5002201F0DF
:100DB0000F040123A3409AB2D343038110BD000066
:100DC0000030014000380040003C004010B50446AF
:100DD000FB48844209D101218803FFF723FE00214B
:100DE0004FF48040FFF71EFE32E0F648844209D1FE
:100DF00001214804FFF723FE00214FF40030FFF7E4
:100E00001EFE25E0F048844209D101218804FFF745
:100E100016FE00214FF48020FFF711FE18E0EB488A
:100E2000844209D10121C804FFF709FE00214FF4D3
:100E30000020FFF704FE0BE0E548844208D10121C1
:100E40000805FFF7FCFD00214FF48010FFF7F7FDC8
:100E500010BD2DE9F04786B005460E460024A24697
:100E600000BFA1460027B08900B100BF2F462C8AE1
:100E70004CF6FF700440F08804432C82AC894EF697
:100E8000F3100440B0883189084371890843044352
:100E9000AC81AC8A4FF6FF400440B0890443AC8279
:100EA00001A8FFF738FDC648874202D1DDF810A03F
:100EB00001E0DDF80CA0A88910F4004F08D00AEB7F
:100EC000CA0000EB0A1031684900B0FBF1F807E0F6
:100ED0000AEBCA0000EB0A1031688900B0FBF1F898
:100EE0006420B8FBF0F004012009642101FB1089A3
:100EF000A88910F4004F08D0322000EBC900B0FBE5
:100F0000F1F000F00700044308E0322000EB091084
:100F10006421B0FBF1F000F00F0004432C8106B017
:100F2000BDE8F0874FF41651016000218180C18037
:100F300001810C21418100218181704710B5024659
:100F40000020108A4FF2FF0318400B884C8823437F
:100F50008C882343CC8823431843108210BD002182
:100F6000018041808180C180704721B1828942F433
:100F70000052828104E082894DF6FF731A4082811B
:100F80007047F0B503460024002600250020A1F597
:100F900010676A3F00D100BF1846C1F3421401F048
:100FA0001F06012707FA06F5012C01D10C3004E0D9
:100FB000022C01D1103000E014301AB107682F4321
:100FC000076002E00768AF430760F0BD1AB1838A8B
:100FD0000B43838202E0838A8B4383827047028AB9
:100FE0004FF6F0731A400282028A0A430282704767
:100FF00082894FF2FF731A40828182890A4382817B
:10100000704721B1828942F00202828104E0828924
:101010004FF6FD731A4082817047028A4FF6DF73E4
:101020001A400282028A0A430282704721B1028A70
:1010300042F48042028204E0028A4BF6FF731A40B7
:1010400002827047C1F30802828070470146888897
:10105000C0F308007047818941F001018181704728
:10106000028BD2B20283028B42EA012202837047D2
:10107000028B02F47F420283028B0A430283704791
:1010800021B1828A42F02002828204E0828A4FF6F5
:10109000DF731A408282704721B1828A42F01002C7
:1010A000828204E0828A4FF6EF731A408282704790
:1010B00021B1828A42F00802828204E0828A4FF6DD
:1010C000F7731A408282704721B1828942F400424C
:1010D000828103E08289C2F30E028281704721B1CE
:1010E000828A42F40062828204E0828A4FF2FF73B5
:1010F0001A4082827047828A4FF6FB731A408282BE
:10110000828A0A438282704721B1828A42F00202B7
:10111000828204E0828A4FF6FD731A408282704711
:1011200002460020B1F5007F00D100BF13880B42BA
:1011300001D0012000E00020704701F40072B2F5F8
:10114000007F00D100BFCA430280704770B50246DD
:101150000024002300250020A1F510666A3E00D17E
:1011600000BFC1F3421501F01F03012606FA03F385
:10117000012D02D19689334006E0022D02D1168A54
:10118000334001E0968A33400C12012606FA04F43B
:101190001688344013B10CB1012000E0002070BD6E
:1011A00010B500220023A1F510646A3C00D100BFF5
:1011B0000A1201249440A3B2DC43048010BD000055
:1011C000003801400044004000480040004C00400E
:1011D000005000400CB50020019000906B48006862
:1011E00040F480306949086000BF6848006800F436
:1011F000003000900198401C0190009818B90198A7
:10120000B0F5A06FF1D16148006810F4003F02D042
:101210000120009001E0002000900098012842D1B8
:101220005B48006840F010005949086008460068B3
:1012300020F0030008600846006840F002000860E3
:10124000524840685149486008464068486008462E
:10125000406840F4806048600846406820F47C1094
:1012600048600846406840F4E81048600846006856
:1012700040F08070086000BF4448006810F0007FB4
:10128000FAD04248406820F00300404948600846D0
:10129000406840F00200486000BF3C48406800F0F1
:1012A0000C000828F9D10CBD10B5FFF793FF10BD55
:1012B00010B53648006840F001003449086008461F
:1012C000406834490840314948600846006832495E
:1012D00008402E4908600846006820F48020086015
:1012E0000846406820F4FE0048604FF41F00886004
:1012F000FFF7DAFF4FF000602849086010BD10B515
:10130000002100200022214B5B6803F00C0121B179
:10131000042906D0082928D107E0214B214C23605D
:1013200027E01F4B1F4C236023E0184B5B6803F43E
:101330007010164B5B6803F48032022303EB90407D
:1013400022B9194B4343174C23600DE00F4B5B68E8
:1013500013F4003F04D0144B4343124C236003E0CA
:101360000F4B43430F4C236003E00D4B0D4C2360A8
:1013700000BF00BF054B5B68C3F303130B4CE15C7C
:10138000084B1B68CB40074C236010BD0010024087
:10139000002002400000FFF8FFFFF6FE08ED00E02D
:1013A00000127A001C00002000093D0020000020EF
:1013B00070B505460C460026FC48006820F0800009
:1013C000FA49086004F01F0040EA0506304600F0C4
:1013D00040FAFF2000F03DFA064614F0800F03D0DB
:1013E000FF2000F036FA0646F048006840F0800022
:1013F000EE490860304670BD2DE9F04104460D46C7
:1014000016460027E948006820F08000E749086098
:1014100005F01F0040EA0407384600F01AFA374684
:10142000384600F016FAE148006840F08000DF49D5
:101430000860BDE8F08170B505460C46DB480068E1
:1014400020F08000D94908603A2000F002FA04E058
:10145000002000F0FEF904F8010B2800A5F10101BD
:101460008DB2F5D12070D148006840F08000CF499E
:10147000086070BD70B505460C46CC48006820F089
:101480008000CA4908607A2000F0E3F903E014F80C
:10149000010B00F0DEF92800A5F101018DB2F6D1B3
:1014A000C248006840F08000C049086070BD10B5B7
:1014B000044604F06000BE49097888420ED0032239
:1014C0001F21A020FFF798FFC4F341121F218020A5
:1014D000FFF792FF04F06000B549087010BD10B529
:1014E00004462046FFF7E3FF21460020FFF760FF98
:1014F00010BD70B504460D462046FFF7D8FF2A46BA
:1015000021464020FFF778FF70BD70B505460C46B8
:101510002946D420FFF7EDFFE1B2D620FFF7E9FF1F
:101520002112D720FFF7E5FF00BFEA20FFF7D7FF22
:1015300010F0010FF9D170BD10B5044604F0070199
:101540007520FFF7D6FF10BD10B504469748006818
:1015500040F0800095490860FF2200211046FFF707
:101560004BFF00209349088000210820FFF7C1FFAE
:1015700000210920FFF7BDFF00210C20FFF7B9FF74
:1015800000210D20FFF7B5FFFE210A20FFF7B1FF74
:1015900019210B20FFF7ADFFFF210420FFF7A9FF62
:1015A00019210520FFF7A5FFFF210620FFF7A1FF66
:1015B0001F210720FFF79DFFB0213820FFF799FF7B
:1015C0003F212820FFF795FF30212920FFF791FFC9
:1015D000F9213020FFF78DFFF7213120FFF789FF38
:1015E0000D21C020FFF785FF0021C120FFF781FFFB
:1015F0003322C2218020FFF7FFFE1221C620FFF711
:1016000078FF0C21C720FFF774FF1221C420FFF7D9
:1016100070FFDC21CA20FFF76CFF0521CB20FFF70C
:1016200068FF2178E420FFF764FF6178E520FFF789
:1016300060FFA178E220FFF75CFFE178E320FFF78D
:1016400058FF2179E020FFF754FF6179E120FFF78F
:1016500050FF4FF480710020FFF757FF4FF4807167
:101660001020FFF752FF1F20FFF721FFC0221B2190
:101670008020FFF7C1FE04221F218020FFF7BCFE5F
:1016800010BD10B57220FFF72AFF10BD70B50446DB
:101690000D46FF210220FFF72CFF19210320FFF741
:1016A00028FFFF202044C1B20620FFF722FF41F6A9
:1016B000FF102044C0F307210720FFF71AFF002284
:1016C00011467A20FFF798FE29462046FFF7D2FE02
:1016D00008221F218020FFF78FFE1C20FFF7FFFE4E
:1016E00010F0020F04D008221F21A020FFF784FE73
:1016F00070BD2DE9F04105460F463920FFF7EFFE9A
:1017000010B90020BDE8F0812A4801780020FFF7D9
:10171000F0FE2848008801120120FFF7EAFE0021B0
:101720003A20FFF745FE2349088000213A20FFF7C1
:101730003FFE2049098841EA00201E490880002117
:101740003A20FFF735FE044600213A20FFF730FE2D
:1017500044EA0024201F84B200213A20FFF728FE2B
:10176000064600213A20FFF723FE46EA0026681EBF
:10177000A04200DA84B216F0800F01D1002403E009
:1017800039462046FFF757FE0A4801780C20FFF73C
:10179000B0FE0848008801120D20FFF7AAFE402283
:1017A0001E218020FFF728FE2046ABE70C0C0140ED
:1017B000300000203200002000B587B00121082051
:1017C000FFF716F901210420FFF712F901210803A0
:1017D000FFF70EF98020ADF8040001208DF8060017
:1017E00010208DF8070001A92648FEF74BFEE020E7
:1017F000ADF8040001208DF8060018208DF80700D0
:1018000001A92148FEF73EFE0020ADF808004FF484
:101810008270ADF80A000020ADF80C00ADF80E00A3
:10182000ADF810004FF40070ADF812000820ADF8CC
:1018300014000020ADF816000720ADF8180002A92A
:101840001248FFF763F901211048FFF704FA07B0C7
:1018500000BD10B5044600BF02210C48FFF77FFA17
:101860000028F9D021460948FFF726FA00BF0121D8
:101870000648FFF774FA0028F9D00448FFF71EFA6B
:10188000C0B210BD000C0140000801400030014012
:101890002DE9FF5F824615469B465446002D7DD0BC
:1018A0002989019802F0ACFD3CB9284601F058F9AD
:1018B0006FF0090004B0BDE8F09F4FF000092E461C
:1018C00021E0D6F80480002716E018F807000D285C
:1018D00003D018F807000A2801D1012000E00020F9
:1018E000814620680F2806DA18F807102268501C75
:1018F0002060201D81547F1C7089B84202DDB9F13F
:10190000000FE2D03668002EDBD1B9F1000F6ED0A7
:101910002068801E211D085C0D2804D12068401E0F
:10192000085C0A2821D02068401E211D085C0D2873
:1019300004D02068401E085C0A2807D12068401C9B
:101940000F2803DC2068401C206009E02068801C10
:101950000F2803DC2068801C206001E00F2020603D
:1019600000222068801E211D0A5468A16A4808F0E0
:1019700013FC002861D169A167480F3008F00CFC06
:10198000002842D1211D64481E3008F013FC65A1D7
:1019900061481E3008F000FC90B900E06FE00121C2
:1019A0006248FEF71CFE01231F2261A1019805F089
:1019B000B8F90123192266A1019805F0B2F958E09F
:1019C0006AA155481E3008F0E7FB88B90121574845
:1019D000FEF703FE0123202267A1019805F0A1F97B
:1019E000012319225AA1019805F09BF941E042E038
:1019F0000123142269A1019805F093F9012319220A
:101A000053A1019805F08DF933E044A1201D08F0A1
:101A1000C3FB58B9211D40480F3008F0CBFB012310
:101A200019224BA1019805F07CF922E001230E2236
:101A300060A1019805F075F91BE034A1201D08F0A4
:101A4000ABFB50B9211D344808F0B4FB01231D2223
:101A50005CA1019805F065F90BE00123112261A159
:101A6000019805F05EF901231D2263A1019805F09C
:101A700058F900202060284601F072F809E0BBF117
:101A8000000F06D1204600F0E3FA019802F01FFC97
:101A900010E700200EE770B504460E46254628469E
:101AA00000F0D6FA70BD2DE9F04106460C46174607
:101AB0000121142000F090FD05462946204603F040
:101AC000BFF85549204603F0C3F85449204603F0B7
:101AD000B9F801231D2248A1204605F022F9002073
:101AE000BDE8F08110B503F0A6F8044617224C4972
:101AF000204602F0ECFDFF21204602F06CFE044679
:101B00004849204603F0A7F810BD000077696C64CF
:101B10006669726500000000FC0000203132333439
:101B2000353600004C4544315F4F4E00000C0140FB
:101B30000D0A20537563636573732C4C4544312043
:101B4000737461747573206973204F4E210D0A0000
:101B50000D0A506C6561736520656E746572206353
:101B60006F6D6D616E643A0D0A0000004C454431A2
:101B70005F4F4646000000000D0A20537563636501
:101B800073732C4C454431207374617475732069F0
:101B900073204F4646210D0A000000000D0A436FD6
:101BA0006D6D616E64206E6F7420666F756E64215A
:101BB000000000000D0A5057442077726F6E673A9C
:101BC0000D0A0000506C6561736520656E74657266
:101BD00020796F75722070617373776F72643A0D3C
:101BE0000A000000557365724E616D652077726F53
:101BF0006E673A0D0A000000506C656173652065E0
:101C00006E74657220796F757220757365726E617E
:101C10006D653A0D0A000000971A00089118000837
:101C200091B90008A71A00082DE9F05F884614460C
:101C30001D464FF0000A00260027B146B346D4F8EF
:101C400004A0002D7ED1002C7CD003225EA1504642
:101C500008F0B9FA68B900232D225C49404605F026
:101C600060F800234FF412725949404605F059F8C4
:101C70007FE0042257A1504608F0A5FA002878D149
:101C800056A1504608F06CFA814657A1504608F01C
:101C900067FA064657A1304608F062FA0746002E5A
:101CA00036D0002F34D02621304608F06BFA834618
:101CB00000208BF800000936093751A1304608F0A2
:101CC0006BFAB8B9062251A1384608F07CFA88B9F7
:101CD00001215048FEF783FC00232D223B4940465A
:101CE00005F01FF8002340F23F324B49404605F013
:101CF00018F83EE000232D223449404605F011F843
:101D000000234FF412723249404605F00AF830E0E1
:101D1000B9F1000F2DD041A1484608F021FA90B149
:101D200001213C48FEF75BFC00232D222749404659
:101D300004F0F7FF002340F23F323749404604F0F9
:101D4000F0FF16E018E038A1484608F009FA80B123
:101D500001213048FEF741FC00232D221B4940465B
:101D600004F0DFFF002340F251323349404604F0D3
:101D7000D8FF204600F0F4FE404602F0A8FA002505
:101D80002846BDE8F09F70B505460C461646012171
:101D9000204602F040FE2949204602F053FF002071
:101DA00070BD10B502F047FF04465022244920467A
:101DB00002F08DFCFF21204602F00DFD0446214972
:101DC000204602F048FF10BD4745540002B000080D
:101DD0002FB00008504F5354000000004C45445FA2
:101DE0004354524C3D000000557365724E616D6561
:101DF0003D00000050617373576F72643D00000036
:101E000077696C64666972650000000031323334B2
:101E100035360000000C014077B200084C45445FA5
:101E20004354524C3D4F4E004C45445F4354524C3A
:101E30003D4F464600000000B6B50008291C0008CA
:101E400091B90008871D000800B587B000F05DF863
:101E5000254806F005F906906FF0FF0006F000F93E
:101E600005902148113806F0FBF804901F482049DE
:101E7000002204ABCDE90021029005AA06A91D4865
:101E800000F0ADFD1B4800F0E8FD1A4800F035FEFB
:101E900007B000BD184800680A301749086070474D
:101EA00001B5164900980968401A022802D3114862
:101EB00008F0F0F8124900980968401AFA2804D38B
:101EC0000F490098086002F025FB0E490098096848
:101ED000401A41F28831884204D30A4900980860C8
:101EE00007F0D2F908BD00001201A8C09B9E0008AF
:101EF000C7A000082C010020000000203C000020AA
:101F00003400002038000020704710B5FFF7FCFFB8
:101F100000F072F800F0CAFB10BD000070B5044676
:101F200000BFEA480068844207D200BFE8A3E52268
:101F3000F1A1F7A008F0F4FB00BF00BF00BFFE480E
:101F40000068844207D300BFE1A3E622FBA1F0A012
:101F500008F0E6FB00BF00BF00BF2079002807D0D3
:101F600000BFDBA3E722FCA1E9A008F0D9FB00BF7A
:101F700000BF00BF2088B0F5805F07DD00BFD4A39D
:101F8000EA22FCA1E2A008F0CBFB00BF00BF208842
:101F9000CE4909684518AC4215D0287998B9E64869
:101FA000006885420FD0FE480068A84201D1FC4875
:101FB000046028882080C5480088201A2988C34AE0
:101FC0001268114448806088C04909684618A642D2
:101FD00011D0307978B9F2480068A04201D1F048B8
:101FE000066020883080B9480088301A2188B74AB6
:101FF00012681144488070BD00BF00BFE94921F05C
:102000000301B24A1160114608684FF48051018003
:102010000021418001711146096801F58051C64ACD
:1020200011600121126811710903C34A12681180FD
:10203000C14A126851800121DB4A1170A349096825
:10204000D74A11604FF48051D84AA2F8A8107047BF
:1020500070B5054615B900BF00BF70BD00BF15F0D3
:10206000030F08D000BF9AA34FF49972D0A1A8A083
:1020700008F056FB00BF00BF00BF944800688542CF
:1020800003D3AD480068854208D300BF90A34FF446
:102090009A72D0A19EA008F043FB00BF00BF8B48FE
:1020A0000068854203D3A448006885420AD300BF74
:1020B00000BFBE48B0F8B000401C81B2BB48A0F8D9
:1020C000B010CAE7A5F1080400BF207940B900BFED
:1020D0007FA340F24512C5A18DA008F021FB00BFEF
:1020E00000BF00202071AE480068844201D2AC4895
:1020F0000460208875490988611A411AAB48B0F814
:10210000AA00401A81B2A948A0F8AA102046FFF7F9
:1021100005FF00BFA1E72DE9F04780460D46E81C0A
:1021200020F0030085B20C2D00DA0C25B5F5805F98
:1021300002DD0020BDE8F08700BF644800688045EC
:1021400003D37D480068804508D300BF60A34FF4E7
:10215000BD72ABA16EA008F0E3FA00BF00BF5B4800
:102160000068804503D37448006880450BD300BFE6
:1021700000BF8E48B0F8B000401C81B28B48A0F878
:10218000B0104046D6E7A8F1080750480088381A32
:102190001FFA80FA3888A0EB0A0008381FFA80F985
:1021A00000BF4D4508DD00BF49A34FF4C6729BA197
:1021B00057A008F0B5FA00BF00BF4D4501DD002073
:1021C000B8E74D4501D14046B4E77848B0F8AA00D9
:1021D000A9EB0501401A81B27448A0F8AA1038880A
:1021E0003A4909684418207900BB20880AF108019F
:1021F00029448EB26A490968A14204D13349096869
:102200003144674A1160314909688C1900212171F4
:102210002080A4F802A03E802188B1F5805F04D020
:1022200021882A4A126811444E8020E005F11400EA
:1022300048451CD80AF10800284486B223480068A3
:10224000841957480068844201D255480460002030
:10225000207138882080A4F802A03E802088B0F544
:10226000805F04D0208819490968084446804046A8
:1022700060E72DE9F041054615B90020BDE8F08181
:10228000E81C20F0030085B20C2D00DA0C25B5F512
:10229000805F01DD0020F1E7414800880B49098893
:1022A000401A86B287E1094800688419207900281D
:1022B0000AD1218806F10800081AA84204D321880F
:1022C00006F10800091ABBE072E10000500000208E
:1022D0002E2E5C2E2E5C4C5749505C6C7769702D0D
:1022E000312E332E325C7372635C636F72655C6D8A
:1022F000656D2E6300000000706C75675F686F6C21
:1023000065733A206D656D203E3D2072616D000061
:10231000417373657274696F6E2022257322206683
:1023200061696C6564206174206C696E6520256448
:1023300020696E2025730A0054000020706C7567B8
:102340005F686F6C65733A206D656D203C2072612B
:102350006D5F656E64000000706C75675F686F6C20
:1023600065733A206D656D2D3E75736564203D3D46
:1023700020300000706C75675F686F6C65733A2081
:102380006D656D2D3E6E657874203C3D204D454D4C
:102390005F53495A455F414C49474E454400000050
:1023A000580000205F0100205C0000202058002021
:1023B0006D656D5F667265653A2073616E697479EB
:1023C00020636865636B20616C69676E6D656E7410
:1023D000000000006D656D5F667265653A206C6592
:1023E00067616C206D656D6F727900006D656D5F62
:1023F000667265653A206D656D2D3E757365640086
:102400006D656D5F7265616C6C6F633A206C6567BA
:10241000616C206D656D6F72790000006D656D5F98
:102420007265616C6C6F632063616E206F6E6C7996
:1024300020736872696E6B206D656D6F7279000034
:1024400005F11400814232D306F1080028441FFA36
:1024500080F86A48006800EB08070020387120887F
:1024600038807E80A4F80080012020713888B0F583
:10247000805F05D03888614909680844A0F8028067
:1024800000BF5F48B0F8AA1005F10800084481B207
:102490005B48A0F8AA10B0F8AC10B0F8AA008142CE
:1024A00004DA5748B0F8AA10A0F8AC101BE00120DD
:1024B000207100BF208851490988611A411A50488B
:1024C000B0F8AA00084481B24D48A0F8AA10B0F8AC
:1024D000AC10B0F8AA00814204DA4948B0F8AA105A
:1024E000A0F8AC1000BF47480068844229D107E03B
:1024F0004448006800884149096808444149086027
:1025000040480068007928B13E4800683E490968A3
:102510008842EDD100BF3B4800683B4909688842CA
:102520000ED038480068007950B100BFAFF2602388
:102530004FF4127235A1AFF2282008F0F1F800BF75
:1025400000BF00BF04F1080028442F4909688842F1
:102550000AD900BFAFF288234FF4137232A1AFF251
:10256000502008F0DDF800BF00BF00BF14F0030FDB
:102570000AD000BFAFF2A82340F24E2236A1AFF23C
:10258000702008F0CDF800BF00BF00BF14F0030FAB
:102590000AD000BFAFF2C8234FF414723AA1AFF2D1
:1025A000902008F0BDF800BF00BF04F1080065E608
:1025B00012480068865BC5F58050B0423FF773AEA5
:1025C00000BF00BF0E48B0F8AE00401C81B20C48FE
:1025D000A0F8AE10002051E670B504460D4604FB8D
:1025E00005F188B2FFF745FE064626B104FB05F16A
:1025F000304607F0AAFD304670BD000050000020B4
:102600002058002058000020540000206D656D5FA8
:102610006D616C6C6F633A20216C667265652D3E4E
:1026200075736564000000006D656D5F6D616C6CB5
:102630006F633A20616C6C6F6361746564206D65D3
:102640006D6F7279206E6F742061626F7665207293
:10265000616D5F656E642E006D656D5F6D616C6CA4
:102660006F633A20616C6C6F6361746564206D65A3
:102670006D6F72792070726F7065726C7920616C09
:1026800069676E65642E00006D656D5F6D616C6CD1
:102690006F633A2073616E69747920636865636B58
:1026A00020616C69676E6D656E74000030B5002046
:1026B0001CE0002400EB8005664B03EB45035C80C7
:1026C00000EB8005634B03EB45039C8000EB80052A
:1026D000604B03EB4503DC805F4B33F8104000EBAD
:1026E00080055C4B23F81540431C98B20928E0DBB9
:1026F0005A4B23F00301002019E00023584C44F802
:10270000203000220CE0564B53F820300B60544B25
:1027100043F82010534B33F810301944531C9AB22D
:102720004D4B33F810309342EDDC431C98B209282E
:10273000E3DB30BD70B5044600BF092C0ADB00BFE7
:1027400049A340F23B1252A159A007F0E9FF00BF94
:10275000002070BD00BF424850F82450002D3CD0EE
:102760003F49286841F8240000BF04EB8401394840
:1027700000EB41004088401C81B204EB84023548E4
:1027800000EB4200418004EB8401324800EB410041
:10279000818804EB84022F4800EB4200408881428C
:1027A0000BDA04EB84012B4800EB4100418804EB79
:1027B0008402284800EB4200818000BF00BF15F072
:1027C000030F08D000BF28A34FF4A67242A138A07F
:1027D00007F0A6FF00BF00BF0FE000BF00BF04EB83
:1027E00084011C4800EB4100C088401C81B204EB0E
:1027F0008402184800EB4200C1802846A9E770B562
:1028000004460D4605B970BD00BF15F0030F08D092
:1028100000BF15A34FF4B47238A125A007F080FFC4
:1028200000BF00BF2E4604EB84010A4800EB4100C4
:102830004088401E81B204EB8402064800EB42004F
:102840004180074850F824003060054840F8246073
:1028500000BFD8E7D25800201AB90008971100200D
:102860007011002008B900082E2E5C2E2E5C4C57EB
:1028700049505C6C7769702D312E332E325C737247
:10288000635C636F72655C6D656D702E6300000044
:102890006D656D705F6D616C6C6F633A20747970FB
:1028A00065203C204D454D505F4D415800000000D3
:1028B000417373657274696F6E20222573222066DE
:1028C00061696C6564206174206C696E65202564A3
:1028D00020696E2025730A006D656D705F6D616CF7
:1028E0006C6F633A206D656D702070726F706572E9
:1028F0006C7920616C69676E656400006D656D7050
:102900005F667265653A206D656D2070726F7065E7
:10291000726C7920616C69676E65640009B9002288
:1029200000E00A68C26000BF00BF704709B900221A
:1029300000E00A68826000BF00BF70472DE9F041E7
:1029400007460D4628687968884201D1012000E0D9
:10295000002038BB00BF00BF7C4806680EE030682E
:102960007968884209D1D6F80C8000BF00BF0121E8
:10297000304601F0DEFD464600E0F668002EEED15E
:10298000734804680CE054B1206840B1206879684D
:10299000884204D10DB9002000E028682060E46876
:1029A000002CF0D10DB9002000E02868786000BF4D
:1029B00000BFBDE8F0812DE9F04106460F46144600
:1029C0001D4639463046FFF7B9FF21463046FFF72E
:1029D000ADFF29463046FFF7A1FFBDE8F0812DE9A4
:1029E000F04704460D4616461F46DDE909A9DDF805
:1029F000208000206060A060E06084F82900C4F8B6
:102A00001C805448007884F82C0052480078401C00
:102A100050490870C4F810903B463246294620467B
:102A2000FFF7C9FF2046D04710B10020BDE8F0876E
:102A30004948006820604848046000BF00BF00BFEC
:102A400000BF00BF00BF00BF00BF00BF00BF00BF8E
:102A500000BF00BF00BF2046E8E74049086000BF54
:102A600000BF704700B5024602B900BD3A48006891
:102A7000904203D13849106808600FE03649086871
:102A800006E00168914202D11168016002E000682D
:102A90000028F6D100BF00B9E7E700BF2F48006863
:102AA000904202D10020FFF7D8FF00BF00BF00BF57
:102AB000DBE710B502460AB9002010BD9078303827
:102AC000C3B22548016812E091F82C0098420DD15C
:102AD000107891F82A40A04208D154782B20405C0D
:102AE000844203D100BF00BF0846E6E70968002919
:102AF000EAD100BF00BF0020DFE710B5044694F81C
:102B0000290010F0010F0DD114F8290F40F0010039
:102B1000207014F8290910F0200F03D0211D204641
:102B200007F038F810BD90F8291011F0010F05D00A
:102B300090F8291021F0010180F829107047014612
:102B400091F8290000F0010070470000B00000205B
:102B5000AC0000206000002064000020680000201D
:102B60002DE9F0410446002C10D100BF44B900BF4C
:102B7000EFA340F21A22F8A1FAA007F0D1FD00BF9E
:102B800000BF00BF00BF0020BDE8F08100BF00BF54
:102B900000BF207B002811D0207B01280ED0207B95
:102BA00002280BD0207B032808D000BFE0A34FF4FD
:102BB0000972F6A1EBA007F0B3FD00BF00BF00262D
:102BC00035E000BFE089002808DC00BFD8A340F250
:102BD0003322F4A1E3A007F0A3FD00BF00BFE0890A
:102BE000401E1FFA80F8A4F80E80B8F1000F1AD129
:102BF000276800BF00BF257B032D04D12146082094
:102C0000FFF7FDFD0BE0012D01D0022D04D121467F
:102C10000720FFF7F4FD02E02046FFF719FA701CC9
:102C2000C6B23C4602E000BF00BF002400BF002C3B
:102C3000C7D13046A8E72DE9F05F83460F4691469D
:102C400000BF00BF0026BBF1000F09D0BBF1010F90
:102C50000AD0BBF1020F0BD0BBF1030F0DD10BE07B
:102C600006F1140086B200BF06F1140086B200BF60
:102C700006F10E0086B20DE00CE000BF00BFACA371
:102C8000CF22CEA1B7A007F04BFD00BF00BF0020B0
:102C9000BDE8F09F00BFB9F1000F70D0B9F1010F8E
:102CA0006ED0B9F1020F6CD0B9F1030F6AD10820D0
:102CB000FFF740FD044600BF00BF0CB90020E7E766
:102CC00084F80C900020206006F110002044C01C05
:102CD00020F00300606000BF207910F0030F07D0E0
:102CE00000BF93A3E122BCA19EA007F019FD00BF85
:102CF00000BF2781F01C20F0030040F2DC51081ACD
:102D0000B84201DD384605E0F01C20F0030040F237
:102D1000DC51081A608100BF61896068014404F2D7
:102D2000EC50814207D900BF81A3E722B6A18DA054
:102D300007F0F6FC00BF00BF00BFF01C20F003004E
:102D400040F2DC51081A002807DC00BF78A3EA2211
:102D5000BAA184A007F0E4FC00BF00BF0120E0811D
:102D6000A2466089A7EB00085BE00820FFF7E2FCC1
:102D7000054645B92046FFF7F3FE002088E754E0FA
:102D80007FE07FE08FE085F80C900020687328607A
:102D9000CAF8005000BF4FF6FF70804508DB00BF47
:102DA00063A340F20512B2A16EA007F0B9FC00BF08
:102DB00000BFA5F808801FFA88F040F2DC51884275
:102DC00002DA1FFA88F001E040F2DC50688105F178
:102DD0001000686000BF287910F0030F08D000BF12
:102DE00053A34FF48572A7A15EA007F099FC00BF22
:102DF00000BF00BF61896068014404F2EC50814269
:102E000008D900BF4AA34FF486727FA155A007F0EE
:102E100087FC00BF00BF0120E8816889A8EB00089B
:102E2000AA46B8F1000FA0DC4AE006F1130121F038
:102E30000302F91C21F00301114488B2FFF719FACB
:102E400004460CB9002023E704F110003044C01CF4
:102E500020F003006060278167810020206084F8F3
:102E60000C9000BF207910F0030F08D000BF30A3F2
:102E700040F225128FA13BA007F052FC00BF00BF1B
:102E80001EE000BF0720FFF755FC04461CB900BF39
:102E900000BF0020FCE60020606027816781206081
:102EA00084F80C900CE000BF00BF21A340F23B125D
:102EB0008BA12CA007F034FC00BF00BF0020E7E688
:102EC00000BF0120E0810020607300BF00BF2046EA
:102ED000DEE62DE9F04105460F4600BF002D08D182
:102EE00000BF13A340F25D1284A11EA007F018FCDE
:102EF00000BF00BF00BF287B032811D0287B01281A
:102F00000ED0287B00280BD0287B022808D000BFD9
:102F100007A34FF4AF727FA112A007F001FC00BF1E
:102F200000BF2889B84201DCBDE8F08100E1000063
:102F30002E2E5C2E2E5C4C5749505C6C7769702DA0
:102F4000312E332E325C7372635C636F72655C701A
:102F50006275662E630000007020213D204E554CA6
:102F60004C000000417373657274696F6E202225F6
:102F70007322206661696C6564206174206C696EDF
:102F80006520256420696E2025730A0070627566CD
:102F90005F667265653A2073616E6520747970654D
:102FA00000000000706275665F667265653A2070A9
:102FB0002D3E726566203E2030000000706275660E
:102FC0005F616C6C6F633A20626164207062756649
:102FD000206C617965720000706275665F616C6C6F
:102FE0006F633A207062756620702D3E7061796C57
:102FF0006F61642070726F7065726C7920616C69AA
:10300000676E656400000000636865636B20702D67
:103010003E7061796C6F6164202B20702D3E6C6571
:103020006E20646F6573206E6F74206F76657266B4
:103030006C6F772070627566000000005042554644
:103040005F504F4F4C5F42554653495A45206D756E
:1030500073742062652062696767657220746861B5
:103060006E204D454D5F414C49474E4D454E5400F5
:1030700072656D5F6C656E203C206D61785F7531A7
:10308000365F7400706275665F616C6C6F633A20C6
:103090007062756620712D3E7061796C6F6164207D
:1030A00070726F7065726C7920616C69676E6564AF
:1030B00000000000706275665F616C6C6F633A209F
:1030C000706275662D3E7061796C6F6164207072FC
:1030D0006F7065726C7920616C69676E6564000061
:1030E000706275665F616C6C6F633A206572726FB7
:1030F0006E656F7573207479706500007062756617
:103100005F7265616C6C6F633A207020213D204EC8
:10311000554C4C00706275665F7265616C6C6F63D4
:103120003A2073616E6520702D3E747970650000E1
:103130002889A7EB00083E462C4625E06089301A16
:1031400086B200BF4FF6FF7080450ADB00BFAFF2CA
:10315000202340F27512FCA1AFF2F81007F0E0FA5C
:1031600000BF00BF208940442081246800BF54B9BB
:1031700000BFAFF2442340F27912F8A1AFF21C2055
:1031800007F0CEFA00BF00BF6089B042D6DB207BDB
:10319000002818D16089B04215D0A088001B3044A7
:1031A00081B22046FEF7B7FF044600BF54B900BF06
:1031B000AFF2842340F28312EEA1AFF2582007F061
:1031C000AFFA00BF00BF668160892081206810B11E
:1031D0002068FFF7C5FC0020206000BFBDE8F0813B
:1031E0002DE9F04104460D4600BF5CB900BFAFF2C7
:1031F000C0234FF4D772AFF2A021AFF2982007F0AE
:103200008FFA00BF00BF05B114B90020BDE8F081FE
:10321000002D13DA684287B200BF6089B8420CDA29
:1032200000BFAFF2F42340F2B512D9A1AFF2CC2027
:1032300007F076FA00BF0120E8E700E0AFB2267B96
:10324000D4F804800EB1032E0DD16068401B60607D
:1032500004F110006168814223D200BF00BFC4F8AE
:1032600004800120D2E7022E01D0012E0AD1002DC8
:1032700006DA6089B84203DB6068401B606010E0DA
:103280000120C3E700BF00BFAFF25C334FF4F2721E
:10329000C7A1AFF2303007F043FA00BF00BF0120F2
:1032A000B4E760892844608120892844208100BFD8
:1032B00000BF0020AAE70146002002E0421CD0B275
:1032C00009680029FAD1704710B1C189491CC18130
:1032D000704770B506460D4600BF0EB1002D0BD1EC
:1032E00000BFAFF2B4334FF42372B5A1AFF28C300C
:1032F00007F016FA00BF70BD00BF344604E0208915
:10330000298908442081246820680028F7D100BF5B
:103310002089618988420AD000BFAFF2EC3340F2C5
:103320009522B5A1AFF2C43007F0FAF900BF00BF93
:1033300000BF206850B100BFAFF20C4340F29622AC
:10334000B9A1AFF2E03007F0EBF900BF00BF208970
:10335000298908442081256000BFCCE770B5054667
:103360000C4621462846FFF7B4FF2046FFF7ACFF86
:1033700000BF00BF70BD70B5044601262568002D52
:1033800024D000BF20896189401A298988420AD047
:1033900000BFAFF2644340F2CB22A7A1AFF23C40A2
:1033A00007F0BEF900BF00BF20896189401A28815B
:1033B000002020606089208100BF00BF2846FFF701
:1033C000CFFB0646002E01DD00BF00BF00BF2089F5
:1033D000618988420AD000BFAFF2AC434FF4377224
:1033E0009EA1AFF2804007F09BF900BF00BF002E06
:1033F00001DD002070BD2846FCE72DE9F0410446C0
:103400000D460026002700BF00BF00BF24B11DB13C
:103410002089298988420EDA00BFAFF2EC4340F2DE
:10342000FB2294A1AFF2C44007F07AF900BF6FF01D
:103430000900BDE8F08100BF00BF00BF54B900BF64
:10344000AFF2145340F2013296A1AFF2E84007F018
:1034500067F900BF00BF6089801B6989C91B88426A
:1034600004DB6889C01B1FFA80F803E06089801BB9
:103470001FFA80F86A68D11962689019424606F00E
:103480004BFE06EB080086B207EB080087B200BFD0
:103490006089B0420ADA00BFAFF26C5340F20D32DD
:1034A00084A1AFF2405007F03BF900BF00BF608934
:1034B000B04201D10026246800BF6889B8420ADA08
:1034C00000BFAFF2945340F2133280A1AFF26C50C0
:1034D00007F026F900BF00BF6889B84201DC002769
:1034E0002D68002D16D068892989884212D100BF25
:1034F000286800280DD000BFAFF2CC534FF44772BC
:1035000079A1AFF2A05007F00BF900BF6FF00800EF
:103510008FE700BF002C15D060892189884211D126
:1035200000BF206868B100BFAFF2FC5340F2213207
:103530006DA1AFF2D05007F0F3F800BF6FF00800B4
:1035400077E7E7E0E7E0000067726F77203C206DE7
:1035500061785F7531365F740000000070627566D7
:103560005F7265616C6C6F633A207120213D204E63
:10357000554C4C006D656D5F7265616C6C6F6320BE
:10358000676976652071203D3D204E554C4C00000A
:10359000696E6372656D656E745F6D61676E697487
:1035A000756465203C3D20702D3E6C656E0000000A
:1035B0006261642070627566207479706500000035
:1035C000286820213D204E554C4C292026262028B5
:1035D0007420213D204E554C4C29202870726F6775
:1035E00072616D6D65722076696F6C6174657320B0
:1035F0004150492900000000702D3E746F745F6CCB
:10360000656E203D3D20702D3E6C656E20286F66F6
:10361000206C617374207062756620696E20636827
:1036200061696E2900000000702D3E6E657874207F
:103630003D3D204E554C4C00702D3E746F745F6CB8
:10364000656E203D3D20702D3E6C656E202B2071F7
:103650002D3E746F745F6C656E000000702D3E74BB
:103660006F745F6C656E203D3D20702D3E6C656E05
:1036700000000000706275665F636F70793A2074B5
:103680006172676574206E6F742062696720656E71
:103690006F75676820746F20686F6C6420736F7536
:1036A00072636500705F746F20213D204E554C4C55
:1036B000000000006F66667365745F746F203C3DA8
:1036C00020705F746F2D3E6C656E00006F666673D0
:1036D00065745F66726F6D203C3D20705F66726F2F
:1036E0006D2D3E6C656E0000706275665F636F7075
:1036F00079282920646F6573206E6F7420616C6C6B
:103700006F77207061636B65742071756575657383
:10371000210A000000BF002D7FF48FAE00BF00BF64
:10372000002086E62DE9F05F8046894616461D4654
:103730004FF0000B00BFB8F1000F0DD100BFAFF686
:1037400010034FF44F7271A1AFF2E87006F0E8FF7A
:1037500000BF0020BDE8F09F00BF00BFB9F1000F1F
:103760000CD100BFAFF6380340F23D326FA1AFF687
:103770000C0006F0D5FF00BF0020EBE700BF4FF0C4
:10378000000AB8F1000F02D0B9F1000F01D10020FA
:10379000E0E7444620E035B16089A84203DC608957
:1037A000281A85B217E06089401B87B2B74200DD56
:1037B00037466268511909EB0A003A4606F0ACFC3C
:1037C0000BEB07001FFA80FB0AEB07001FFA80FAD9
:1037D000F01B86B2002524680EB1002CDBD15846C0
:1037E000B8E72DE9F04705460F46904646464FF0AC
:1037F000000A00BF002D0DD100BFAFF6CC034FF47F
:103800005B7253A1AFF6A40006F08AFF00BF002050
:10381000BDE8F08700BF00BF002F0CD100BFAFF69E
:10382000F00340F26D3250A1AFF6C80006F078FF09
:1038300000BF0020ECE700BF1DB117B1288940454B
:1038400002DA6FF00900E3E72C4621E000BF54B92B
:1038500000BFAFF6241340F275324AA1AFF6FC0068
:1038600006F05EFF00BF00BFB1466089484501DA3F
:10387000B4F80A9007EB0A014A46606806F04CFC6F
:10388000A6EB090086B20AEB09001FFA80FA246849
:10389000002EDBD100BF0EB9C2450AD000BFAFF683
:1038A00070134FF460723DA1AFF6481006F038FF78
:1038B00000BF00BF0020ABE72DE9F04104460F46F2
:1038C000206810B92046BDE8F081218900223846E1
:1038D000FFF7B1F905460DB92046F4E72146284621
:1038E000FFF78BFD064600BF56B100BFAFF6C01311
:1038F00040F29E322FA1AFF6941006F011FF00BFE8
:1039000000BF2046FFF72CF92846DCE77062756699
:103910005F636F70795F7061727469616C3A20697E
:103920006E76616C6964206275660000706275660F
:103930005F636F70795F7061727469616C3A20695E
:103940006E76616C696420646174617074720000E9
:10395000706275665F74616B653A20696E76616C42
:103960006964206275660000706275665F74616BE1
:10397000653A20696E76616C696420646174617077
:1039800074720000706275665F74616B653A2069DD
:103990006E76616C6964207062756600646964208B
:1039A0006E6F7420636F707920616C6C2064617439
:1039B00061000000706275665F636F7079206661F8
:1039C000696C6564000000002DE9F04705468A46F1
:1039D0004FF000086F68388904F044FC00F0FF09DC
:1039E00000266948046819E0207C484514D16069C4
:1039F00090B107F10C032A462146D4E905C0E047FF
:103A000050B100254FF0010836B1E068F0605E4823
:103A10000068E0605C4804602646E468B8F1000F86
:103A200001D1002CE0D14046BDE8F087024609B93B
:103A3000002000E00868106000207047024609B9C5
:103A4000002000E0086850600020704741618261FA
:103A500070472DE9FE4F04460E46914600BF00BF59
:103A600014213046FFF7BCFB90B100221146012023
:103A7000FFF7E1F805462DB900BF00BF4FF0FF305A
:103A8000BDE8FE8F31462846FFF768FC00BF14E012
:103A900035466FF013012846FFF7A2FB00280CD033
:103AA00000BF00BF39A3E82242A14CA006F038FEB7
:103AB00000BF00BF4FF0FF30E2E7484604F090FC43
:103AC000070009D100BF00BFB54202D02846FFF76A
:103AD00047F86FF00300D3E70CB1206810B907F185
:103AE000040800E0A046207CA17ACDE901070091FE
:103AF000E37A4A464146284604F0DDFD8246B54257
:103B000002D02846FFF72CF85046B9E770B50446B6
:103B10000D46221D29462046FFF79BFF70BD70B55C
:103B2000054619480068A84205D117480068C068D2
:103B3000154908600CE01448046807E0E06820B10B
:103B4000E068A84201D1E868E060E468002CF5D1A3
:103B500029460020FEF753FE70BD70B5054600BF34
:103B600000BF0020FEF7E6FD04465CB11C212046A4
:103B700006F0EBFA2574FF20E07203480068E0606D
:103B800001480460204670BD6C0000202E2E5C2E83
:103B90002E5C4C5749505C6C7769702D312E332E5A
:103BA000325C7372635C636F72655C7261772E6303
:103BB0000000000043616E277420726573746F7299
:103BC0006520686561646572207765206A75737425
:103BD0002072656D6F766564210000004173736526
:103BE0007274696F6E2022257322206661696C658C
:103BF00064206174206C696E6520256420696E20E4
:103C000025730A0070B5044600254CB1606818B1F0
:103C10006068FEF7A5FF054621460420FEF7EFFD8C
:103C2000284670BD70B50446002506E0266820468B
:103C3000FFF7E8FF2844C5B23446002CF6D12846E9
:103C400070BD10B50446207C08B3207C0A281ED025
:103C5000207C01281BD000BF00BFE06F30B100BF47
:103C600000BFE06FFEF77CFF0020E067606F08B1E7
:103C700000BF00BFA06F08B100BF00BF606FFFF7BB
:103C8000D1FFA06FFFF7CEFF00206067A06710BDD7
:103C90002DE9FC474FF0000AE7480068401CE64960
:103CA00008600026E54804680CB900BF00BF81E148
:103CB00000BF00BF00BF207C002808D100BFE0A3E8
:103CC00040F25522E8A1F3A006F02AFD00BF00BF94
:103CD00000BF207C012808D100BFD9A340F25622A2
:103CE000F6A1ECA006F01CFD00BF00BF00BF207CC9
:103CF0000A2808D100BFD2A340F25722FAA1E5A0BA
:103D000006F00EFD00BF00BF0025A846207C02285B
:103D100007D194F84A00062803D1681CC5B200BF39
:103D200077E094F84A000C2803D1681CC5B200BFA4
:103D30006FE094F89C0000281DDD54F8980F401C9B
:103D4000206020792168A4F19804A0F10100F24AD2
:103D5000105C81425DD30020C4F8980094F89C0068
:103D6000072804D294F89C00401C84F89C0020464C
:103D700003F035FB4DE0B4F93600002803DBE08E9C
:103D8000401C00B2E086A06FF0B3B4F93600B4F97D
:103D9000481088423DDB00BF00BF207C02280FD0C6
:103DA00004F144046088B4F9001000EBE100A1794B
:103DB000DA4A515C00FA01F000B2A080A4F1440498
:103DC0004FF00000E086B4F85200B4F85C1088426E
:103DD00002DAB4F8520001E0B4F85C0081464FEA20
:103DE0006900A4F85400B4F85400218F884206DA20
:103DF000208F4FF6FF7101EA4000A4F85400208F95
:103E0000A4F8520000BF00E003E000BF204603F02A
:103E100013FA207C062809D18749206B0968081A03
:103E2000282803D9681CC5B200BF00BF207A10F053
:103E3000080F37D0207C042802D0207C072831D1FD
:103E4000B749D4F8940008444FF4FA71B0FBF1F08C
:103E5000794A216B1268511A884208D200BF00BF0C
:103E6000681CC5B208F1010000F0FF081AE094F8E0
:103E70009D0042F29F425043D4F8941001EBC000E1
:103E80004FF4FA71B0FBF1F06B4A216B1268511AD2
:103E9000884207D2204603F053FA94F89D00401C54
:103EA00084F89D00207C032809D16349206B0968B0
:103EB000081A282803D9681CC5B200BF00BF207C9F
:103EC000092809D15C49206B0968081AF02803D930
:103ED000681CC5B200BF00BF002D46D02046FFF7CA
:103EE000B0FE8EB100BF55480068844208D100BFC3
:103EF00053A340F2E2228BA166A006F011FC00BFA2
:103F000000BFE068F06011E000BF4C480068A042CC
:103F100008D000BF4AA340F2E6228DA15DA006F0C2
:103F2000FFFB00BF00BF4549E068086000BFD4F850
:103F3000900028B16FF00401D4F890206069904798
:103F400000BFB8F1000F09D0208C218BCDE9001003
:103F5000231D2246616AA06D03F0F7F8E768214649
:103F60000220FEF74CFC3C4624E014F8340F401CC1
:103F7000207020786178A4F13404884218DB002096
:103F800084F8340000BF00BF00BFD4F88C0030B10B
:103F90002146D4F88C2060699047824601E04FF0BA
:103FA000000A00BFBAF1000F02D1204602F092FFD2
:103FB0002646E468002C7FF47BAE00266F48046838
:103FC0001DE100BF207C0A2808D000BF1CA340F2DE
:103FD0000A326BA12FA006F0A3FB00BF00BF002593
:103FE0001549206B0968081AF02801D9681CC5B268
:103FF000002D1FD02046FFF724FE8EB100BF5F4882
:104000000068844208D100BF0DA340F2193268A1B4
:1040100020A006F085FB00BF00BFE068F060E5E08F
:1040200000BF56480068A04205D000BF04A340F27C
:104030001D32D1E0E1E0D5E0A4000020B000002076
:104040002E2E5C2E2E5C4C5749505C6C7769702D7F
:10405000312E332E325C7372635C636F72655C74F5
:1040600063702E63000000007463705F736C6F7781
:10407000746D723A20616374697665207063622D95
:104080003E737461746520213D20434C4F53454479
:104090000A000000417373657274696F6E202225F7
:1040A0007322206661696C6564206174206C696E9E
:1040B0006520256420696E2025730A007463705F93
:1040C000736C6F77746D723A2061637469766520E2
:1040D0007063622D3E737461746520213D204C49EC
:1040E0005354454E0A0000007463705F736C6F7721
:1040F000746D723A20616374697665207063622D15
:104100003E737461746520213D2054494D452D57FF
:104110004149540A0000000039B900082CB90008D0
:10412000B84C0A007463705F736C6F77746D723A89
:10413000206D6964646C652074637020213D207477
:1041400063705F6163746976655F706362730000BA
:104150007463705F736C6F77746D723A2066697206
:10416000737420706362203D3D207463705F6163EF
:10417000746976655F70636273000000B4000020AC
:104180007463705F736C6F77746D723A2054494D2D
:10419000452D57414954207063622D3E73746174FC
:1041A00065203D3D2054494D452D5741495400005F
:1041B0007463705F736C6F77746D723A206D6964AD
:1041C000646C652074637020213D207463705F749B
:1041D000775F706362730000F7A1AFF2481006F0DA
:1041E0009FFA00BF00BFFE49E0680860E76821460B
:1041F0000220FEF704FB3C4601E02646E468002C62
:104200007FF4DFAEBDE8FC8770B505460C4600BF05
:104210002868A04203D12868C068286017E0F149E7
:10422000286808600EE0EF480068C068A04204D12A
:10423000EC49E0680968C86008E0EA480068C068BE
:10424000E8490860E74800680028ECD100BF00207A
:10425000E06000BF2046FFF7F4FC207C0A2810D065
:10426000207C01280DD094F8220010F0010F08D016
:1042700094F8220040F0020084F82200204602F068
:1042800029FE207C01281DD000BF606F50B100BF07
:10429000AFF2542340F2F742D3A1AFF2082006F068
:1042A0003FFA00BF00BF00BFA06F50B100BFAFF228
:1042B00070234FF49F62D2A1AFF2282006F030FAAB
:1042C00000BF00BF0020207400BF00BF70BD70B5EC
:1042D0000546287C082864D2DFE800F004323D4817
:1042E0005163635A002400BFCC480068A84205D13E
:1042F000CA480068C068C949086018E0C748006833
:10430000B84908600EE0B7480068C068A84204D108
:10431000B449E8680968C86008E0B2480068C06845
:10432000B0490860AF4800680028ECD100BF002009
:10433000E86000BF29460220FEF761FA002533E05D
:1043400000242946B648FFF75FFF29460320FEF701
:1043500056FA002528E000242946B248FFF754FF0A
:1043600029460220FEF74BFA00251DE001212846D0
:1043700002F0C9FC04460CB90520287414E00121A0
:10438000284602F0C0FC04460CB9052028740BE056
:104390000121284602F0B7FC04460CB90920287414
:1043A00002E00024002500BF00BF1DB114B928465B
:1043B00002F090FD204670BD10B501460B8D486A95
:1043C000C218088F40F2B454CB6AA04201DD2046E7
:1043D00000E0088F1844101A04D4088D4885C86A74
:1043E000101A10BDCB6A486AC01A002802DD0020EE
:1043F000488503E0888D8B8CC01A48850020F0E743
:1044000070B504460D4600BF208D4FF6FF71081AA7
:10441000A8420ADA00BFAFF2D8334FF4DD7282A1AE
:10442000AFF2903006F07CF900BF00BF208D284429
:104430002085208D40F66831884201DD08462085C0
:104440002046FFF7B9FF064640F2DA2086420ADB33
:1044500000BF94F8220040F0020084F822002046B9
:1044600002F038FD00BF00BF00BF70BD2DE9F04174
:1044700007460D4614461E463CB121892846FFF7E3
:10448000BFFF2046FEF76CFB05E026B92846FFF784
:104490001EFFBDE8F0810020FBE770B561480468AD
:1044A00035E0E06FD0B100BF00BF00BFD4F884009A
:1044B00040B100232146D4F88460E26F6069B047C0
:1044C000054606E0002321461846E26FFFF7CEFFBF
:1044D000054600BF0DB90020E06700BF94F8220038
:1044E00010F0010F12D000BF00BF00BF94F82200EF
:1044F00040F0020084F82200204602F0EBFC00BFEE
:1045000094F8220020F0030084F82200E468002CD4
:10451000C7D170BD10B5FFF7C0FF4C480078401CF4
:10452000C0B24A49087010F0010F01D0FFF7B0FB8C
:1045300010BD2DE9FF5F04460E46207C0A2808D1F5
:1045400021462748FFF760FE21460220FEF757F973
:1045500087E0A76DD4F824800CB9002000E0206823
:104560000290201D00D100E060680390B4F818A00C
:10457000B4F82090D4F89050D4F814B021462948CB
:10458000FFF742FEA06F10B1A06FFFF74BFB606F0B
:1045900010B1606FFFF746FB21460220FEF72FF9AE
:1045A00000BF1DB16FF004015846A84700BF0EB10F
:1045B00000BF4DE055E000007463705F736C6F776F
:1045C000746D723A20666972737420706362203D64
:1045D0003D207463705F74775F70636273000000E6
:1045E000B4000020B8000020756E73656E742073EF
:1045F00065676D656E7473206C65616B696E6700CD
:10460000756E61636B6564207365676D656E747349
:10461000206C65616B696E6700000000A8000020D7
:10462000AC000020B00000207463705F7265637698
:1046300065643A206C656E20776F756C64207772C4
:104640006170207263765F776E640A00BC000020A0
:1046500000BF03AB02AA41463846CDE900A902F0EB
:1046600074FDBDE8FF9F00BFFE480088401C80B27B
:10467000FC4A1080B0F5004F02DB4FF480501080F0
:10468000F948016806E0088BF64A1288904200D18A
:10469000EAE7C9680029F6D1F448016806E0088B0A
:1046A000F04A1288904200D1DEE7C9680029F6D1AD
:1046B000EF48016806E0088BEA4A1288904200D170
:1046C000D2E7C9680029F6D1E648008870472DE98D
:1046D000F04107460D46164600BF387C00280ED034
:1046E00000BFAFF2A4634FF48C72E2A1AFF25C6042
:1046F00006F016F800BF6FF00C00BDE8F08100BFB7
:1047000016B9FFF7B0FF0646D948046810E0208BC1
:10471000B0420CD144B1206830B12DB1286818B135
:1047200020682968884202D16FF00A00E5E7E46852
:10473000002CECD1CC48046810E0208BB0420CD1A6
:1047400044B1206830B12DB1286818B120682968BB
:10475000884202D16FF00A00CFE7E468002CECD168
:10476000CE48046810E0208BB0420CD144B12068E0
:1047700030B12DB1286818B120682968884202D16B
:104780006FF00A00B9E7E468002CECD1B748046880
:104790000AE0208BB04206D120682968884202D105
:1047A0006FF00A00A9E7E468002CF2D11DB1286877
:1047B00008B1286838603E8300BFB8480068F860D8
:1047C000B648076000BF00BF00BF002095E7034662
:1047D0006FF00400704770B504460E4600BF207CA1
:1047E00000280CD000BFAFF2A87340F27312ACA146
:1047F000AFF2607005F094FF00BF002070BD00BFF5
:10480000207C012801D12046F8E70320FDF792FF24
:1048100005460DB90020F1E760696861208B2883A7
:104820000120287420892881288940F002002881ED
:10483000E07AE872A07AA8720CB9002000E0206843
:10484000286000BF95480068A04205D193480068E1
:10485000C0689249086018E090480068994908606B
:104860000EE098480068C068A04204D19549E0680D
:104870000968C86008E093480068C068914908600A
:10488000904800680028ECD100BF0020E06000BF25
:1048900021460220FDF7B3FF8B48E86100BF744852
:1048A0000068E8607248056000BF2846A6E72DE969
:1048B000F04105460E46304603F092FD044654B1E1
:1048C000208C40B1208C283887B2BD4201DA2846BE
:1048D00000E0384605462846BDE8F0817B48006880
:1048E0007B490968084479490860084600687047B0
:1048F0002DE9FC4704460E469046994600BF207CB1
:1049000000280ED000BFAFF6C8034FF4027271A1A9
:10491000AFF6800005F004FF00BF6FF00C00BDE8AB
:10492000FC8700BF00BF00BF16B13068606002E0C6
:104930006FF00800F3E7A4F82080208B10B9FFF790
:1049400092FE2083FFF7CAFF054600206062A5653E
:10495000681EE064A06640F6683020856085606A65
:10496000E06240F66830A4F85C004FF406702087DF
:10497000208F3146FFF79BFF20870120A4F85200CB
:10498000208F00EB80004FF6FF7101EA4000A4F891
:10499000540002202074C4F8889000BF3F4800688B
:1049A000A04205D13D480068C0683C49086018E055
:1049B0003A480068434908600EE042480068C06811
:1049C000A04204D13F49E0680968C86008E03D485A
:1049D0000068C0683B4908603A4800680028ECD18C
:1049E00000BF0020E06000BF00BF1F480068E0601B
:1049F0001D48046000BF0120002102230A46CDE9C2
:104A00000010204601F009FE074617B9204602F0C3
:104A100061FA384683E7417470472DE9F041064654
:104A20004FF07F08002700250F48046813E0607CE2
:104A3000B0420FDC607C40450CDC2549206B0968E6
:104A4000081AB84206D32249206B09680F1A254676
:104A500094F81180E468002CE9D10DB100BF53E057
:104A600057E000009C000020B0000020B4000020AF
:104A7000AC0000207463705F62696E643A20636109
:104A80006E206F6E6C792062696E6420696E20738F
:104A90007461746520434C4F53454400A8000020C6
:104AA0007463705F6C697374656E3A207063622022
:104AB000616C726561647920636F6E6E65637465A5
:104AC00064000000B8000020CF470008A0000020CC
:104AD000A40000207463705F636F6E6E6563743A48
:104AE0002063616E206F6E6C7920636F6E6E6563FC
:104AF0007465642066726F6D207374617465204301
:104B00004C4F53454400000000BF01212846FFF7E9
:104B100010FDBDE8F08170B50026002554480468FA
:104B20000BE05449206B0968081AB04204D351497C
:104B3000206B09680E1A2546E468002CF1D12DB1CE
:104B400000BF00BF01212846FFF7F3FC70BD70B520
:104B500006460220FDF7EEFD04461CBB00BF00BF69
:104B6000FFF7D9FF0220FDF7E5FD04468CB900BF31
:104B700000BF3046FFF751FF0220FDF7DBFD044682
:104B80003CB13D48B0F8CC00401E81B23A48A0F894
:104B9000CC103CB13848B0F8CC00401E81B2364849
:104BA000A0F8CC10002C44D0A021204605F0CDFA6E
:104BB000402004F1180404F8070C40F66830A4F80B
:104BC00056004FF00000A4F8580040F668302082EC
:104BD00060824FF0000004F80E0C4FF0FF0004F864
:104BE0000D0C4FF4067020844FF0060020864FF025
:104BF0000000A0854FF00600E0854FF0FF30E08315
:104C00004FF001006087FFF769FE0546E564256403
:104C10006563256517480068A06100202077AFF222
:104C2000B370E0661548E067002084F88500A4F1C1
:104C30001804204670BD10B54020FFF788FF10BD56
:104C400041617047C0F884107047C0F88010704709
:104C5000C0F890107047C1617047C0F88C1080F8A0
:104C6000352070470146064850F821007047000083
:104C7000B4000020A40000202058002000DD6D00BA
:104C8000700000202DE9FC5F044600200190FD48E3
:104C9000007810F0100F74D0B4F85C00616E00EB77
:104CA0000109F949206E0968401A15D4F649206EA9
:104CB0000968884204D1F549606E0968401A0BD42E
:104CC000F249606E096888421ED1F1480068C089C7
:104CD000B4F85C10884217DDED480068C089A4F87C
:104CE0005C00E94800682066E84800686066B4F83F
:104CF0005C00002806DD94F89C00002802DD0020FE
:104D000084F89C0000BF00BFE049E06C0968081A05
:104D1000002844DC0020A4F86C00DE48008878BB42
:104D2000B4F85C10606E0844484532D1B4F93600DE
:104D300000282EDBD549E06C0968884229D1012082
:104D4000019094F85000401C94F85010884204DD03
:104D500094F85000401C84F8500094F85000032848
:104D600010DDB4F85200218F084480B2B4F852101C
:104D700088420EDDB4F85200218F0844A4F8520096
:104D800007E07EE194F85000032802D1204602F0AB
:104D900098FA0198002801D184F85000DDE0E06C19
:104DA00000F10100B9490968081A77D4B749A06D24
:104DB0000968081A002871DC94F8220010F0040F2A
:104DC00008D014F8220F20F004002070608E208696
:104DD000A4F122044FF0000004F13404A075608AAD
:104DE000B4F9101000EBE10000B2A082208BA749BB
:104DF0000988A1EB00002087608F218F084460871D
:104E00004FF000002077A1480068A06114F8240C3E
:104E1000A4F13404042828DBB4F85200B4F8541088
:104E2000884210DAB4F85200218F084480B2B4F8F6
:104E30005210884205DDB4F85200218F0844A4F8CE
:104E4000520000BF11E034F8381F4943628B91FBD8
:104E5000F2F1114488B2618BA4F13804814201DA85
:104E6000A4F8520000BF00BF00BF00BF00BF49E070
:104E700000BF00BFA66FA06F0068A06700BF00BFA3
:104E800000BF7068FEF717FAB4F8701088420ADDA8
:104E900000BF81A340F2B13289A100E05AE092A0A4
:104EA00005F03EFC00BF00BFB4F86C0058B131699A
:104EB000888903F0D7F910F0010F04D0B4F86C0022
:104EC000401EA4F86C007068FEF7F5F9B4F8701095
:104ED000081AA4F870003046FEF794FE00BF00BF29
:104EE000B4F8700070B100BFA06F50B9606F40B9E6
:104EF00000BF69A34FF46F7285A17BA005F010FC81
:104F000000BF00BFA06FC8B1A16F0969486803F076
:104F1000AFF98346A16F0969888903F0A3F910F0FE
:104F2000030F01D0012000E00020A16F898908440F
:104F3000584456490968401A002899DDA06F18B9ED
:104F40004FF0FF30E08601E00020E086002084F88A
:104F5000340002E00020A4F86C0047E000BF00BF6E
:104F6000666F606F0068606700BF00BF00BF706859
:104F7000FEF7A1F9B4F87010884208DD00BF46A31F
:104F800040F2DE324EA158A005F0CAFB00BF00BFC0
:104F9000B4F86C0058B13169888903F063F910F0F6
:104FA000010F04D0B4F86C00401EA4F86C007068C7
:104FB000FEF781F9B4F87010081AA4F870003046B2
:104FC000FEF720FE00BF00BFB4F8700070B100BF54
:104FD000A06F50B9606F40B900BF2FA340F2E73215
:104FE0004BA141A005F09CFB00BF00BF606FF0B17A
:104FF000616F0969486803F03BF98346616F09698D
:10500000888903F02FF910F0030F01D0012000E090
:105010000020616F8989084458441C490968081AAE
:1050200005D41A49A06D0968081A002896DD00BF4A
:1050300000BFE06B28B31549206C0968401A20D5E1
:10504000A08F3B490988081A0FFA80F800BF00BFFB
:1050500034F9440FA8EBE0000FFA80F820884044B0
:1050600000B224F84409B8F1000F03DAC8F10000D7
:105070000FFA80F804F14404B4F90200A8EBA00090
:1050800058E06BE0D0000020C8000020CC000020D9
:10509000C0000020D20000202E2E5C2E2E5C4C572B
:1050A00049505C6C7769702D312E332E325C7372EF
:1050B000635C636F72655C7463705F696E2E63001E
:1050C0007063622D3E736E645F71756575656C65A6
:1050D0006E203E3D20706275665F636C656E286E63
:1050E0006578742D3E702900417373657274696F21
:1050F0006E2022257322206661696C6564206174CC
:10510000206C696E6520256420696E2025730A0075
:105110007463705F726563656976653A2076616C69
:105120006964207175657565206C656E67746800CB
:10513000A40000200FFA80F86088404400B260802C
:105140006088B4F9001000EBE10000B2A080A4F187
:10515000440400BF00BF4FF00000E063F94800883E
:10516000002872DDF848616A006800F10100081A41
:105170006CD4F548616A0068F24A12881044401EF7
:10518000081A002862DCF049606A0968451AEF488D
:10519000476800BF406850B900BFAFF2041340F247
:1051A0004442EBA1AFF2C00005F0BAFA00BF00BF65
:1051B00000BF47F6FF7085420ADB00BFAFF228133D
:1051C00040F24542E6A1AFF2E00005F0A9FA00BFC7
:1051D00000BFDE4840684089A84238DA00BFDB489B
:1051E00040680089A8420ADA00BFAFF2541340F2C7
:1051F0004742DFA1AFF2101005F092FA00BF00BFE6
:10520000D24840680089401B1FFA80FA06E078897E
:105210002D1AA7F808A0002078813F687889A84255
:10522000F5DB684201B23846FDF7DAFF002822D0EC
:1052300000BF00BFAFF2A01340F25442D0A1AFF2C2
:10524000581005F06DFA00BF15E020E126E0BF49D7
:105250004868694209B2FDF7C3FF60B100BF00BFF3
:10526000AFF2CC1340F25942C5A1AFF2841005F061
:1052700057FA00BF00BFB549786888600846808942
:10528000A18CB14A1288891A401AB0498881AE4966
:10529000606A0860AD490969486011E0AA49606A1E
:1052A0000968081A0CD500BF00BF00BF94F822009F
:1052B00040F0020084F82200204601F00BFE00BFFF
:1052C000A149606A0968081A7ED4218D606A084481
:1052D000401E9D490968081A002875DC9A49606AD1
:1052E0000968884271D199490969888902F0BAFF31
:1052F00010F0030F01D0012000E0002093498989BC
:10530000084490490880208D0988884260DA00BFEF
:1053100000BF8E490969888902F0A4FF10F0010FCF
:1053200018D04FF6C07002F097FF88490969898943
:1053300000EA010B85490969888902F093FF00F0B2
:105340003E00009002F088FF4BEA000B7F480069A6
:10535000A0F80CB0208D7D4988810969888902F008
:1053600081FF10F0020F04D078488089401E7749F1
:105370008881764A91895068FDF7ABFD73490969C8
:10538000888902F06FFF10F0030F01D0012000E0C8
:1053900000206E49898908446A49088000BF218D30
:1053A000606A084468490968664A1288114488425C
:1053B0000DD000BFAFF220334FF4916275A1AFF270
:1053C000D82005F0ADF901E05DE058E000BF00BF76
:1053D0005D4800685B4909880844606200BF208D11
:1053E0005849098888420ADA00BFAFF2543340F2C4
:1053F000CB4276A1AFF2103005F092F900BF00BFAA
:10540000208D50490988401A20852046FEF7D4FF98
:105410004E4840680089002806DD4C4840687349C2
:10542000086000204949486048490969888902F0B4
:1054300019FF10F0010F07D000BF00BF6C480078C3
:1054400040F020006A49087000BF94F8220010F074
:10545000010F0DD014F8220F20F0010020702078E9
:1054600040F0020004F82209204601F033FD05E077
:1054700094F8220040F0010084F8220020E0204649
:1054800001F077FC1CE0204601F073FC18E02E4987
:10549000606A0968081A08D4218D606A0844401EB1
:1054A00029490968081A00280ADD00BF94F822007B
:1054B00040F0020084F82200204601F00BFD00BFFE
:1054C000BDE8FC9F2DE9F04780464A48006800F19E
:1054D000140548490968888902F0C4FE0521B1EB2A
:1054E000203F2EDA43490968888902F0BBFE052176
:1054F000C1EB20304FF6FF7101EA800600249EE0E8
:1055000015F80490B9F1000F06D0B9F1010F07D0DA
:10551000B9F1020F70D108E000BF00BFBDE8F0870D
:10552000601C84B200BF00BF88E000BF00BF601CE9
:10553000285C042802D1201DB0425EDD00BF00BF00
:10554000ECE77FE0D2000020C80000202C590020AA
:10555000696E7365672E7020213D204E554C4C00BE
:10556000696E73616E65206F6666736574210000F5
:105570007062756620746F6F2073686F727421009B
:10558000706275665F686561646572206661696CEA
:10559000656400007463705F726563656976653A7F
:1055A000207365676D656E74206E6F742074726908
:1055B0006D6D656420636F72726563746C792074BD
:1055C0006F207263765F776E640A00007463705FA9
:1055D000726563656976653A207463706C656E20E8
:1055E0003E207263765F776E640A0000D800002068
:1055F000D4000020C000002013E0E01C295CA01CA7
:10560000285C41EA002740F2B450874200DC17B919
:1056100040F2B45000E03846A8F83800201D84B2AB
:105620000CE000BF00BF601C285C10B900BF00BFC9
:1056300074E7601C285C204484B200BF00BFB44201
:10564000FFF65EAF00BF69E72DE9FC410446002785
:10565000B846F748007810F0040F40D0207C0228AC
:1056600006D1F449A06D096888420FD101270DE0E9
:10567000F149606A0968081A08D4218D606A0844F3
:10568000ED490968081A002800DC0127002F20D006
:1056900000BF00BF00BF207C50B900BFAFF208635D
:1056A00040F22522E5A1AFF2C05005F039F800BF65
:1056B00000BFEA48007840F00800E849087094F814
:1056C000220020F0010084F822006FF00500BDE800
:1056D000FC8100BF00BF00BF00BF0020F7E7D44837
:1056E000007810F0020F12D0207C02280FD0207C0E
:1056F00003280CD000BF94F8220040F0020084F888
:105700002200204601F0E6FB00BF0020DFE7D4487E
:1057100000682063002084F89D002046FFF7D2FE39
:10572000207C801E08287DD2DFE800F004ACFDFC60
:10573000FBFAF9F800BF00BFBD48007810F0100F69
:1057400071D0BB48007810F0020F7FD0A16F0969BB
:10575000486802F08DFD401CB6490968884275D141
:10576000B4F86E00401CA4F86E00B3480068401CFA
:105770006062606AE062AF480068E064B94800684F
:10578000C089A4F85C00AC480068401E2066042074
:105790002074208F211DFFF78AF82087208F00EBCF
:1057A00080004FF6FF7101EA4000A4F85400B4F8FD
:1057B0005200012802D1208F400000E0208FA4F881
:1057C000520000BFB4F8700000280ADC00BFAFF23E
:1057D000387340F25722A4A1AFF2F46004F0A0FFA6
:1057E00000BF00BFB4F87000401EA4F8700000BFF6
:1057F00000BFA56F2868A067A06F18B94FF0FF30F1
:10580000E08603E00020E08684F84A002846FEF7A0
:10581000F9F900BFD4F8880050B100222146D4F82D
:10582000883001E021E211E060699847804601E09C
:105830004FF0000800BF00BF94F8220040F00200C3
:1058400084F82200204601F045FB1AE078480078F1
:1058500010F0100F15D0834800680088814909684E
:105860004988CDE9001074480068854A128881187B
:10587000844803680C33026810326E48006801F0F7
:1058800064FCF3E16A48007810F0100F7DD0E06C02
:1058900000F1010067490968081A5ED46549A06DE6
:1058A0000968081A002858DC0420207400BF00BFD3
:1058B00000BFE06950B900BFAFF624034FF41F7278
:1058C00071A1AFF2DC7004F02BFF00BF00BF00BF7E
:1058D000E06930B100222146E3696069984780465B
:1058E00001E04FF0000800BFB8F1000F06D0012121
:1058F0002046FEF71EFE6FF00400E8E6B4F85260A2
:105900002046FFF7BFF9B4F86C0020B1B4F86C0082
:10591000401EA4F86C00012E09D105E08FE14BE197
:1059200042E000E157E040E0208F400000E0208F9F
:10593000A4F852004948007810F0200F0CD000BFA6
:1059400094F8220040F0020084F82200204601F082
:10595000C1FA00BF0720207425E042480068008893
:10596000404909684988CDE9001033480068444A35
:1059700012888118434803680C33026810322D489E
:10598000006801F0E2FB0EE0FFE72948007810F024
:10599000020F08D0606A401E27490968884202D178
:1059A000204601F066FC61E100BF2046FFF76AF97E
:1059B0002A48007810F0200F0CD000BF94F8220085
:1059C00040F0020084F82200204601F083FA00BF74
:1059D000072020744AE12046FFF754F91F48007859
:1059E00010F0200F7ED01248007810F0100F7FD0FA
:1059F0001049A06D096888427AD100BF00BF00BF7E
:105A000094F8220040F0020084F82200204601F0C1
:105A100061FA00BF2046FEF714F900BF1F48006876
:105A2000A0423DD11D480068C0681C49086050E094
:105A3000D0000020CC000020C80000207463705FFC
:105A4000696E7075743A207063622D3E7374617470
:105A50006520213D20434C4F53454400D400002095
:105A6000A4000020C00000207063622D3E736E64AD
:105A70005F71756575656C656E203E2030000000B5
:105A8000D2000020C40000207063622D3E61636379
:105A900065707420213D204E554C4C00B000002014
:105AA000FE480068FE4908600EE0FD480068C068D6
:105AB000A04204D1FA49E0680968C86008E0F848E3
:105AC0000068C068F6490860F54800680028ECD115
:105AD00000BF0020E06000BF0A20207400BFF14832
